:020000040800F2
:1000000070070020A1010008EF2200080F2200085D
:10001000ED2200085F12000815250008000000000E
:10002000000000000000000000000000F3220008B3
:100030006D12000800000000F1220008F5220008FF
:10004000BB010008BB010008BB010008BB010008A0
:10005000BB010008BB010008BB010008BB01000890
:10006000BB010008BB010008BB010008BB01000880
:10007000BB010008BB01000861120008BB010008B9
:10008000BB010008BB010008BB010008BB01000860
:10009000BB010008BB010008BB010008BB01000850
:1000A000BB010008BB010008BB010008BB01000840
:1000B00065230008BB010008BB010008BB01000864
:1000C000BB010008BB010008BB010008BB01000820
:1000D000BB010008BB010008BB010008BB01000810
:1000E000BB010008BB010008BB01000800F002F8DA
:1000F00000F047F80AA090E8000C82448344AAF17B
:100100000107DA4501D100F03CF8AFF2090EBAE878
:100110000F0013F0010F18BFFB1A43F0010318473B
:100120002827000048270000103A24BF78C878C16B
:10013000FAD8520724BF30C830C144BF04680C60ED
:10014000704700000023002400250026103A28BF35
:1001500078C1FBD8520728BF30C148BF0B60704739
:10016000662902F01983002070471FB500F03AFBA2
:1001700004000020002102F069FAE0601FBD10B504
:1001800010BD00F02FFC1146FFF7EFFF02F0EEF973
:1001900000F04DFC03B4FFF7F2FF03BC00F090FC4D
:1001A0000948804709480047FEE7FEE7FEE7FEE70B
:1001B000FEE7FEE7FEE7FEE7FEE7FEE70448054947
:1001C000054A064B7047000063230008ED00000855
:1001D00070010020700700207003002070030020D1
:1001E0000FB47CB50C0009AA009001D02044401E39
:1001F000084B7B4469460190089800F0D2FA054606
:100200001CB10020694600F0DFFA28467CBC5DF88E
:1002100014FB0000DD0500002DE9F0474FF0000A57
:1002200089460446C0F820A02046E1688847002897
:1002300076D0252806D0D4E901219047206A401CB9
:100240002062F1E7E168204600258847C4F81CA039
:1002500006460027C4F818A02A2E09D0304602F01E
:100260007EF938B304EB8708303EC8F8186019E00F
:1002700059F8041B204604EB87029161E168884726
:10028000012F064618D1E069002820DA25F0200564
:100290001DE0D8F8180000EB800006EB4000303875
:1002A000C8F818002046E1688847064602F057F96A
:1002B0000028EED1012F0AD02E2E08D12046E16869
:1002C00088477F1C0646022F45F02005C4DBA06945
:1002D000002803DA404245F00105A061E80701D09B
:1002E00025F01005B6B1A6F14100192802D8203634
:1002F00045F400654A463146204625604D46FFF7E5
:100300002FFF58B1012806D0ED1D25F0070000F1A0
:10031000080989E704E005F1040985E730468AE722
:10032000206ABDE8F0874FF0000200B513469446FE
:100330009646203922BFA0E80C50A0E80C50B1F13D
:100340002001BFF4F7AF090728BFA0E80C5048BF51
:100350000CC05DF804EB890028BF40F8042B08BFEF
:10036000704748BF20F8022B11F0804F18BF00F8EB
:10037000012B704770477047704770472DE9FF4F5A
:100380000C461E464FF0FF378BB0D2E90001DDF876
:1003900060800A908A46C1F30A5505B93D4600219E
:1003A00008464FF00000BAF1000F00F4400005DAF3
:1003B00000EB80004FF4400101EA50004FEA9059F1
:1003C000B9F1010F00DDB9460A9850EA4A000ED093
:1003D00044F61050A5F2FF3545432F14B8F1000F35
:1003E0001ED07542291E1EDDC9F100021CE0B8F1C5
:1003F000010F4FF0000001D0302103E0F24305E08F
:100400002154401CB042FBDB304600220021215425
:100410000B99C1F80880C1E900200FB0BDE8F08F4A
:10042000BD1B6D1CDEE74A4600DA694206A800F0F3
:1004300063FA06AB93E8070003AB83E80700504676
:100440000A9900F044FB8DE80700A0F500501F3822
:1004500000900398002D0ADD42F21F014A4608442D
:10046000002303A90390684600F0ADFD09E0A0F564
:1004700000504A461F38002303A90390684600F045
:10048000B7FD8DE807000004000C03D04FF0FF30EB
:10049000410800E01046B8F1000F03D0002200929E
:1004A00015461EE0751E05D400F0A0F930326255E5
:1004B0006D1EF9D5B3460122084302D000227F1CED
:1004C00004E02078302801D100227F1E002A0997FD
:1004D00084D01DE0112D07DA00F088F93032625522
:1004E0006D1C50EA0102F5D1084302D00098C8B152
:1004F0000EE00021681E05E0235C625C6354225418
:10050000401E491C8142F7DBAB46A81B401E0990E8
:10051000002004F80B000B98099AC0F80880C0E985
:10052000002B7AE711264FF0000857E72DE9F04F2E
:1005300088460446D21D22F0070191B0D1E900019E
:10054000CDE90A0101F0E7FF02460B98C00F01D088
:100550002D2007E02068810701D52B2002E0202113
:1005600001EAC000032A099001D0072A05DB0346EF
:100570004146204600F080F90BE12078800601D545
:10058000E06900E00620B8F1650F814606D0B8F1B9
:10059000660F18D0B8F1670F70D131E00020B9F1C3
:1005A000110F009001DB112301E009F101030AAAF8
:1005B00001A90CA8FFF7E2FEDDE90C70002609F1A5
:1005C0000105834647E001204B4600904FF000476D
:1005D0000AAA01A90CA8FFF7D1FEDDE90DB00C991C
:1005E0005D46002610B909F101000D18B9EB0500B0
:1005F00003D4C0F1FF3609F10105A5EB09002BE09A
:10060000B9F1010F01DA4FF001090020B9F1110F22
:100610000090484601DD112300E003460AAA01A923
:100620000CA8FFF7ABFEDDE90C704D4600268346B3
:10063000207800070AD4AB4500DA5D4601A8012DF9
:1006400004DD411911F8011C302907D04F4502DAA9
:1006500017F1040F04DA012082460FE06D1EEEE769
:10066000002F02DCED1B3E4403E0781CA84200DDB5
:100670007D1CB81B00F1010A4FF0004720780007ED
:1006800003D4AA4501DB4FF0FF3A0021B7F1004F38
:100690000DF143088DF8431024D002202B23002FA6
:1006A00001DA7F422D230A21021EA0F1010000DCA5
:1006B0005FB197FBF1FC97FBF1F201FB1C7C174645
:1006C0000CF1300C08F801CDEEE7A8F10100037041
:1006D0002188090501D5452100E06521A0F1010827
:1006E00000F8011C09980FA9A1EB0807FF1D00B134
:1006F0000120411901EBEA70A1693844081A401E33
:10070000A0612078C00602D42046AFF3008009988B
:1007100028B1D4E901219047206A401C206220784A
:10072000C00622D52046AFF300801EE0002E04DB79
:10073000B34502DD01A8805D00E03020D4E901214D
:100740009047206A401C2062761CAAF101005FEAF3
:10075000000A0AD100F046F8C0680168405CD4E99C
:1007600001219047206A401C2062281EA5F1010546
:10077000DCDC07E0D4E9012118F8010B9047206A7E
:10078000401C2062381EA7F10107F3DC2046AFF3BE
:100790000080032011B041E601694A1C026108781B
:1007A000704700B58FB0CDE90131002105910549B1
:1007B0007944CDE9031011466846FFF72DFD0FB0CF
:1007C00000BD0000E5FFFFFF0A6802F8010B0A60A8
:1007D0007047D1E900239A4202D2531C0B6010707B
:1007E00070470000004870473001002030B5B0F17C
:1007F0000A024FEA900E71F100034EEA817EB0EBDF
:100800000E0061EB91014FEA101E4EEA017E10EBE3
:100810000E0041EB11114FEA102E4EEA016E10EB63
:100820000E0041EB11214FEA104E4EEA014E10EB43
:100830000E0041EB1141401841F100014FEAD00098
:1008400040EA41704FEAD10110EB80054FEA810484
:1008500044EA907444EB01046D1944EB0404521B08
:10086000A3414FF0000348BF0A3200D530BD401C01
:1008700041F1000130BD00002DE9F0411F46044662
:1008800003260168072A01F4006004DB08B116A5FD
:1008900005E016A503E008B115A500E015A521F0B7
:1008A00010002060A069C01EA0610FB1401EA061B1
:1008B0002046AFF300804FB1D4E90121384690477C
:1008C000206A401C2062C01C206206E0206AFAE711
:1008D000D4E9012115F8010B9047761EF8D2204685
:1008E000AFF30080BDE8F0814E414E006E616E00B6
:1008F000494E4600696E66002DE9F047814616466E
:100900008AB0354878440DC88DE80D0032487844E7
:10091000801C03AC0DC884E80D0041F69B300844F0
:10092000372190FBF1F290FBF1F5A5F1800501FB79
:1009300012041B3C02D56442012000E00020DFF8D5
:1009400098A080460027FA44AAF1BE0A0EE0E0070C
:100950000AD03246684607EB470101230AEB8101C2
:1009600000F046FB8DE8070064107F1C002CEED1E0
:10097000194F7F44AE3F19E0E80715D007EB04108C
:100980000DF1180A90E80E008AE80E00C068F042E7
:1009900001D1981908903246012306A903A800F056
:1009A00027FB03AB83E807006D10641C002DE3D127
:1009B0004FF0010332466946B8F1000F03A802D098
:1009C00000F001FB01E000F013FBC9E90001C9F8E8
:1009D00008200AB0BDE8F087281F000000487047D3
:1009E000100100207546FFF7F9FFAE460500694685
:1009F000534620F00700854618B020B5FFF7DEFB10
:100A0000BDE820404FF000064FF000074FF000080F
:100A10004FF0000B21F00701AC46ACE8C009ACE890
:100A2000C009ACE8C009ACE8C0098D46704710B5F4
:100A30000446AFF300802046BDE81040FFF7AABB94
:100A40004FF0013C50F8042B51F8043B9A4221D15D
:100A5000A2EB0C03934313EACC1317D150F8042BE9
:100A600051F8043B9A4215D1A2EB0C03934313EACD
:100A7000CC130BD150F8042B51F8043B9A4209D106
:100A8000A2EB0C03934313EACC13DBD04FF000002E
:100A9000704700BFD01A01BAB1FA81F101F0180114
:100AA00022FA01F0CB40C1F12001DBB2C0B2C01A82
:100AB0002CFA01F3D11A914311EAC311E6D1704720
:100AC00001491820ABBEFEE72600020070475FEA2E
:100AD000400C08BF91F0000F4FEA8C234FEAC1226F
:100AE00043EA51514FEA1C5018BF00F5F0404FEA5D
:100AF000300018BF41F000415FEA6C5C00F02980D3
:100B0000BCF1FF3F08BF40F080407047130C06BFA8
:100B100012044FF0100C4FF0000C130E04BF120221
:100B20000CF1080C130F04BF12010CF1040C930F0D
:100B300004BF92000CF1020CD30F04BF52000CF161
:100B4000010C11464FF00002A0F11F00A0EB0C00B9
:100B5000704711F0004F08BF704731F000413FF47B
:100B6000D5AF0B0C06BF09044FF0100C4FF0000C72
:100B70000B0E04BF09020CF1080C0B0F04BF090196
:100B80000CF1040C8B0F04BF89000CF1020CCB0F8D
:100B900004BF49000CF1010CCCF12003A0EB0C00C8
:100BA00022FA03F302FA0CF241EA030100F1010018
:100BB000704720F07F4C80EA030023F07F47ACEBC6
:100BC000070303F57C5300F0004003F1FF032DE918
:100BD00080494FEA154B09B44FEA144325EA0B4EFE
:100BE00024EA03480FF2042606EB132749083E784F
:100BF0005FEA320203FB0667C7F5000707FB06F64C
:100C00004FEA54374FEAD64606F1020607FB066C58
:100C1000CCF1005C4FEA1C472CEA074C07FB06F4BA
:100C20000CFB06F504EB15464FEA961634BF002080
:100C30004FF000404FEAD13706FB07FC4FEA1C4C4F
:100C40000CFB0BF7D21B03FB0CF761EB07010CFB52
:100C50000EF7B0EB074072EB17420CFB08F734BFFE
:100C6000A2EB0742B2EB074261EB17414FEA0C449B
:100C70004FEA910706FB07FC4FEA1C4C0CFB0BF7F5
:100C8000B0EBC74072EB573203FB0CF734BFA2EB5B
:100C9000C742B2EBC74261EB57310CFB0EF7B0EB2A
:100CA000C70072EB57720CFB08F734BFA2EBC70208
:100CB000B2EBC70261EB5771039F4FEA816141EAD2
:100CC000921104EBCC044FEAD1374FEA826206FB63
:100CD00007FC42EA90124FEA80604FEA1C4C0CFB82
:100CE0000BF7D21B03FB0CF761EB07010CFB0EF7B4
:100CF000B0EB074072EB17420CFB08F734BFA2EBD6
:100D00000742B2EB074261EB17414FEA8C554FEABD
:100D1000910704EB9C2406FB07FC4FEA1C4C0CFBE0
:100D20000BF7B0EBC74072EB573203FB0CF734BF45
:100D3000A2EBC742B2EBC74261EB57310CFB0EF797
:100D4000B0EBC70072EB57720CFB08F734BFA2EB95
:100D5000C702B2EBC70261EB577115EB4C254FEAA6
:100D6000816141EA92114FEA82624FEAD13742EA49
:100D7000901206FB07FC44F100044FEA80604FEA42
:100D80001C4C0CFB0BF7D21B03FB0CF761EB0701B0
:100D90000CFB0EF7B0EB074072EB17420CFB08F7A9
:100DA00034BFA2EB0742B2EB074261EB174115EBF0
:100DB0001C154FEA813141EA92414FEA823242EA00
:100DC00090424FEA80304FEA0C7644F1000448EA42
:100DD00003434EEA0B484FF0000EB2EB080C71EBE8
:100DE000030724BF624639464EEB0E0E4FF0000B50
:100DF0000018524149414BEB0B0BB2EB080C71EB65
:100E000003077BF1000B24BF624639464EEB0E0E02
:100E10004FF0000B0018524149414BEB0B0BB2EB6A
:100E2000080C71EB03077BF1000B24BF62463946C7
:100E30004EEB0E0E51EA020718BF46F0010616EB04
:100E40000E7655F1000254F1000103D5BDE8890189
:100E5000BDE80088BDE88901BDE80048B6195241E7
:100E600041EB0101A3F10103704780807F7E7D7C0F
:100E70007B7A7978777676757473727171706F6E2C
:100E80006E6D6C6C6B6A6A696868676666656464D7
:100E9000636362616160605F5F5E5E5D5D5C5C5B61
:100EA0005B5A5A59595858575756565555555454D0
:100EB000535352525251515050504F4F4F4E4E4D2E
:100EC0004D4D4C4C4C4B4B4B4A4A4A49494948487A
:100ED00048474747474646464545454444444443BA
:100EE00043434342424242414141002B9C4630D45D
:100EF00077002BD01CB54FEA370703B44FF0100032
:100F00004FF01001BAF1000F06D0BCF1000FDCBFAA
:100F100040F0080040F008014FF000000FBCBDE8B1
:100F200010400BF1010BBBF1010F08BF5FEA17077F
:100F300022BF12F1010211F101014FF0004143F112
:100F4000000300F0004043EA00007047F9D357085F
:100F5000D0E746EA064613F1400F4FEA16461FDD7A
:100F600013F1200FDFBF16430A46002120335B42F6
:100F7000BED0C3F1200746EA064602FA07F74FEA59
:100F8000164646EA0706C3F1200722FA03F201FAE1
:100F900007F721FA03F14FF0000342EA0702A7E73F
:100FA00046EA020646EA06464FEA164646EA0106C1
:100FB000BCBF46EA0646360C4FF000034FF0000275
:100FC0004FF0000194E72DE9804C9A46934670B4A7
:100FD00091E8380007C831EA400C48BF34EA430CB6
:100FE00003D5FFF7E6FDFFF780FFF0BCBDE8008CFE
:100FF0002DE9804C9A46934670B491E8380007C8B2
:1010000010F0804F08BF13F0804F03D100F005F8B7
:10101000FFF76BFFF0BCBDE8008C20F07F4780EA53
:10102000030023F07F4C07EB0C03A3F57C5300F087
:101030000040A3F1FE0392F0000F00F0B38095F0A2
:10104000000F00F077802DE901494FEA11404FEA87
:10105000144621EA004800FB06FC24EA064708FB88
:1010600006F607FB08F800FB07F718EB06484CEB01
:10107000164C4FEA124B18EB07484FEA15464CEB5B
:10108000174022EA0B4E0BFB06FC25EA06470EFB37
:1010900006F607FB0EFE0BFB07F71EEB064E4CEBAE
:1010A000164C4FF000061EEB074E4CEB174B18EB9F
:1010B0000B0840F1000018EB0E0B58EB000840F154
:1010C00000008F1A4FF000013CBFC943661B14BFDC
:1010D000B5EB040C00213CBFC943F61B4FEA174493
:1010E0004EEA8E0E27EA04454FEA1C4704FB0762CE
:1010F0002CEA074C05FB07F70CFB05F604FB0CFC80
:1011000016EB074642EB174216EB0C4642EB1C422D
:101110001BEB060658EB0202414146EA9E0601D54A
:10112000BDE80189B619524141EB0101A3F1010368
:10113000BDE801894FEA14454FEA114724EA054604
:1011400021EA074C05FB07F406FB07F70CFB06F149
:1011500005FB0CFC11EB074144EB17444FEA124727
:1011600011EB0C4144EB1C4422EA074C05FB07F24F
:1011700006FB07F70CFB06F605FB0CFC16EB074617
:1011800042EB174216EB0C4642EB1C456A1854F131
:10119000000148BF7047B619524141EB0101A3F16C
:1011A0000103704795F0000F37D04FEA11424FEA24
:1011B000144721EA024624EA074C02FB07F106FB2A
:1011C00007F70CFB06F402FB0CFC14EB074441EBA5
:1011D00017414FEA154714EB0C4441EB1C4125EA3B
:1011E000074C02FB07F506FB07F70CFB06F602FBB4
:1011F0000CFC16EB074645EB174516EB0C4645EB8A
:101200001C42121951F1000148BF7047B6195241F2
:1012100041EB0101A3F1010370474FEA14454FEA86
:10122000114724EA054621EA074C05FB07F106FBB6
:1012300007F70CFB06F24FF0000605FB0CFC12EB67
:10124000074241EB174112EB0C4251EB1C4148BFE6
:101250007047921841EB0101A3F101037047FEE7CB
:10126000014800F007B80000CC000020704772B6BB
:10127000FEE700002DE9F05FC16B0C6801680B68A8
:10128000D0F840C0042202FA0CF2494DDFF824A144
:10129000494E4A4FDFF828B1DFF828E122422CD02E
:1012A0005A072AD50A68920603D40A6822F0040273
:1012B0000A600168A94201D1042219E0514501D117
:1012C000402215E0B14202D14FF4806210E0B942F1
:1012D00002D14FF480420BE0594502D14FF48022F5
:1012E00006E0714502D14FF4800201E04FF08062C8
:1012F0002F4908394A60C16A3BE04FF0020808FAFA
:101300000CF818EA040F4FF000094FF0010235D035
:101310005FEA837832D50B689B0605D40B6823F00F
:101320000A030B6080F821200168A94201D1022242
:1013300019E0514501D1202215E0B14202D14FF40C
:10134000007210E0B94202D14FF400520BE059454F
:1013500002D14FF4003206E0714502D14FF4001281
:1013600001E04FF00072124908394A6080F820907D
:10137000816A00291AD0BDE8F05F0847082505FA00
:101380000CF5254212D01B0710D50B6823F00E0375
:101390000B6090F84010C36B02FA01F15960826350
:1013A00080F8212080F82090016BE2E7BDE8F09FF3
:1013B000080002401C00024030000240440002408D
:1013C000580002406C00024030B528B308C81349E9
:1013D00014221944B1FBF2F18900C1631049816301
:1013E000022141771A6843F6F0718A43D0E900146C
:1013F0002143D0E902452C43214304692143446938
:101400002143846921431143196000214163012272
:1014100042770177084630BD012030BDF8FFFDBF9F
:101420000000024070B5044600F00CF90546601C4F
:1014300002D004480078044400F004F9401BA042A4
:10144000FAD370BD100000202DE9F84FDFF8B891F5
:10145000002409F1040A0AF1040B23460F270BF1BB
:10146000040EC9E00125A5402A40AA427DD1674E5D
:10147000D1F804C0ACEB0608B44532D014DCBCF1A2
:10148000030F3AD009DCBCF1000F2AD0BCF1010FE8
:101490001CD0BCF1020F31D11DE0BCF1110F17D0EF
:1014A000BCF1120F2AD119E0B8F5881F19D006DC5B
:1014B000B8F5803F15D0B8F5801F1FD111E0B8F501
:1014C000001F0ED0B8F5041F18D10AE0CB6815E054
:1014D000CB681B1D12E0CB6808330FE0CB680C33E0
:1014E0000CE08B682BB1012B4FF0080303D0456152
:1014F00004E0042302E0056100E00023FF2A01D894
:10150000064601E000F104064FEA840501D9A5F181
:101510002005D6F8008007FA05FC28EA0C0803FA33
:1015200005F548EA0508C6F800804D68ED0062D56B
:10153000374DAE6946F00106AE61AD6924F0030691
:1015400005F001050095334D06EB050CDCF808505D
:10155000A607360F07FA06F825EA0805DFF8B8806F
:10156000404503D14FF0000817E044E0DFF8AC80BD
:10157000404502D14FF001080FE0DFF8A48040455C
:1015800002D14FF0020808E0DFF89880404502D110
:101590004FF0030801E04FF0040808FA06F848EAA3
:1015A0000508CCF808804D68D9F80060ED034D4679
:1015B00001D5164300E096432E604D68DAF80060CE
:1015C000AD03554601D5164300E096432E604D68A5
:1015D000DBF80060ED025D4601D5164300E096435E
:1015E0002E604D68DEF80060AD02754601D51643E9
:1015F00000E096432E60641C0D682A46E5407FF4A7
:1016000031AFBDE8F88F0000000401400000111068
:10161000001002400000014000080140000C0140A1
:101620000010014000140140C26821EA02030A4090
:1016300043EA0241016170470AB101617047090440
:10164000FBE70000014880687047000010000020A0
:1016500002488168027811448160704710000020C0
:10166000074810B5016841F010010160032000F047
:1016700075F80F2000F006F800F024F8002010BDE7
:101680000020024070B50D4D04464FF47A71287861
:10169000B1FBF0F00A490968B1FBF0F000F0ECFA98
:1016A00048B9102C07D200222146501E00F036F80F
:1016B00000206C6070BD012070BD00001000002093
:1016C0001C0000200C4808B5816941F001018161CE
:1016D000816901F001010091C16941F08051C1614E
:1016E000C06900F0805000900448416821F0E0613A
:1016F00041F00071416008BD00100240000001404F
:10170000002809DB00F01F02012191404009800000
:1017100000F1E020C0F8001170470000F0B40E4B5B
:101720001B680C46C3F30223C3F10705042D00D93F
:101730000425191D072901D2002300E0DB1E012624
:1017400006FA05F1491E214099409E40761E16403A
:101750003143F0BC00F0F3BE0CED00E0064900F0B0
:10176000070208684FF6FF03184040EA0220034AC8
:1017700010430860704700000CED00E00000FA051F
:101780002DE9F0470F46050061D0434E306800F068
:101790000700B84209D2306820F0070038433060B3
:1017A000306800F00700B84251D128683B4C8107EF
:1017B00012D5400703D5606840F4E0606060287887
:1017C000000703D5606840F4605060606068A968F5
:1017D00020F0F000084360602878C00728D06868CF
:1017E000012810D02168022810D0890700292EDA9C
:1017F000616821F0030101436160FFF723FF804628
:1018000041F288390DE021688903EFE78901EDE7AE
:10181000FFF718FFA0EB0801494502D90320BDE8F6
:10182000F0876068696800F00C00B0EB810FEFD1C1
:10183000306800F00700B8420BD9306820F007008C
:1018400038433060306800F00700B84201D0012012
:10185000E5E72878400705D56068E96820F4E0608E
:10186000084360602878000706D56068296920F47D
:10187000605040EAC100606000F038F86168084AD2
:10188000C1F30311515CC84006490860064800686E
:10189000FFF7F8FE0020C2E70020024000100240DF
:1018A0009C2700081C000020140000200448054963
:1018B00000684968044AC1F30221515CC84070477E
:1018C0001C00002000100240AC2700080448054915
:1018D00000684968044AC1F3C221515CC84070479E
:1018E0001C00002000100240AC27000812A185B0A7
:1018F0000FC98DE80F0014A0144A006804905168C5
:10190000134801F00C03042B10D0082B0ED1C1F3A7
:101910008343C9031DF803000AD5516804AAC1F323
:101920004041515C0A4A5043B0FBF1F005B07047AA
:1019300008494843FAE700000203040506070809BE
:101940000A0B0C0D0E0F10100102000000100240D7
:1019500000127A0000093D002DE9F84F040070D014
:101960002078C04DC00749D06868C0F381000128C5
:1019700007D06868C0F38100022809D16868C003F5
:1019800006D52868800339D560680028E7D035E09F
:101990006068B0F5803F0BD010B1B0F5A02F11D02A
:1019A000286820F480302860286820F4802002E035
:1019B000286840F480302860606890B1FFF742FEEC
:1019C00006460AE0286840F480202860F0E700BF5F
:1019D000FFF738FE801B642873D828688003F7D58A
:1019E0000CE0FFF72FFE064605E000BFFFF72AFEDA
:1019F000801B6428F0D828688003F7D420789A4E9A
:101A000080074FF001094FF0000839D5686810F0E1
:101A10000C0F07D06868C0F38100022809D16868FC
:101A2000C00306D42868800714D52069012808D18E
:101A300010E02069B0B1C6F80090FFF703FE07463A
:101A400005E00AE1FFF7FEFDC01B0228C4D82868A4
:101A50008007F7D52868616920F0F80040EAC100E6
:101A600028600DE0C6F80080FFF7ECFD074604E0B3
:101A7000FFF7E8FDC01B022823D828688007F7D4A9
:101A8000207800072CD57948A169D9B1C0F8009019
:101A9000FFF7D8FD074604E0FFF7D4FDC01B02287E
:101AA0000FD8686A8007F7D571484FF4FA5100687B
:101AB000B0FBF1F0009000BF0098411E0091FAD2F7
:101AC0000EE080E0C0F80080FFF7BCFD074604E0B0
:101AD000FFF7B8FDC01B022875D8686A8007F7D4E5
:101AE0002078400760D5E8690027C00008D4E8697D
:101AF00040F08050E861E869012700F080500090D4
:101B00005C480168C90513D40168834641F48071BB
:101B10000160FFF797FD824606E000BFFFF792FDE8
:101B2000A0EB0A0064284ED8DBF80000C005F5D50C
:101B3000E06801280AD008B1052813D0286A20F0EF
:101B400001002862286A20F0040002E0286A40F0C0
:101B500001002862E06841F2883B98B1FFF772FD0E
:101B600082460BE0286A40F004002862EEE700BFDE
:101B7000FFF768FDA0EB0A0159455AD8286A80078B
:101B8000F6D50CE0FFF75EFD824605E0FFF75AFD53
:101B9000A0EB0A0159454CD8286A8007F6D41FB13A
:101BA000E86920F08050E861E06988B36968C1F3B2
:101BB0008101022944D00228C6F8608004D0FFF7D2
:101BC00041FD044638E034E0FFF73CFD074604E001
:101BD000FFF738FDC01B02282BD828688001F7D4F6
:101BE000206AB0F5803F05D16868A16820F4003014
:101BF00008436860D4E908010843696821F4741156
:101C000008436860C6F86090FFF71CFD044606E0D4
:101C100025E000BFFFF716FD001B022809D8286841
:101C20008001F7D51BE000BFFFF70CFD001B022869
:101C300002D90320BDE8F88F28688001F4D40EE0B3
:101C40000128F7D06868226A00F48031914204D1FB
:101C5000616A00F47010884201D00120EAE7002098
:101C6000E8E70000001002400000424280044242C7
:101C70001C0000200070004010B5401EB0F1807FB5
:101C800001D3012010BD4FF0E02460610F216017E7
:101C900000F055FC0020A06107202061002010BD4D
:101CA0007047704770B590F83C20012A26D0012477
:101CB00080F83C40022280F83D2003685A689D6805
:101CC00022F070060A6832435A600D4B02689A424D
:101CD00008D0B2F1804F05D00A4B9A4202D00A4B8D
:101CE0009A4204D1496825F080031943916080F835
:101CF0003D40002180F83C10084670BD022070BDB8
:101D0000002C014000040040000800402DE9F04193
:101D10000D46040003D094F83D0018B108E00120FE
:101D2000BDE8F081002084F83C00204600F040F837
:101D3000022084F83D002068816844F20702914344
:101D40008160211D206800F013FB22689068916972
:101D5000166A2B68AF69034340F20330814341EABE
:101D60000721A868EF6908434FF6FC418843E968FA
:101D700040EA0720014328692F6A000140EA073042
:101D8000084369686D6926F0220646EA051529436D
:101D900093602268906154F8460B0162012004F8B8
:101DA0001F09E0752076E0762077A0750020B7E760
:101DB00000B585B000210091019102910391006866
:101DC000B0F1804F1ED11048C16941F00101C161DD
:101DD000C16901F001010491816941F0040181614F
:101DE0008069694600F004000490032000900748D1
:101DF000FFF72AFB002211461C20FFF78FFC1C2056
:101E0000FFF77EFC05B000BD001002400008014055
:101E100070B590F83E60044690F83F5090F842301C
:101E200090F84320022021B1042914D0012E25D19D
:101E30001EE0012E22D1012B20D184F83E0084F82F
:101E4000420001220021206800F0C8FA2068C16821
:101E500041F002012FE0012D10D1012A0ED184F8AA
:101E60003F0084F843000421206800F0B7FA1EE028
:101E7000012D03D1012B01D1012A01D0012070BD18
:101E800084F83E0084F83F0084F8420084F8430060
:101E900001220021206800F0A1FA0122042120681B
:101EA00000F09CFA2068C16841F00201C16020681E
:101EB000C16841F00401C1602068016841F001017E
:101EC0000160002070BD000010B50068B0F1804FC7
:101ED00009D1406A044C606000B2608000F0FEFBF3
:101EE000A0600020E06010BD0000002070B5044636
:101EF000006801694FF00005C943890715D4C1681E
:101F0000C943890711D4E91E0161012020772068A7
:101F100080698007204602D0FFF7D6FF04E000F07A
:101F200098F8204600F096F8257720680169C943A3
:101F3000490717D4C168C943490713D46FF0040196
:101F40000161022020772068806910F4407F2046DC
:101F500002D0FFF7B9FF04E000F07BF8204600F064
:101F600079F8257720680169C943090716D4C16843
:101F7000C943090712D46FF00801016104202077DA
:101F80002068C0698007204602D0FFF79DFF04E06B
:101F900000F05FF8204600F05DF8257720680169C1
:101FA000C943C90617D4C168C943C90613D46FF021
:101FB00010010161082020772068C06910F4407F7B
:101FC000204602D0FFF780FF04E000F042F82046F0
:101FD00000F040F8257720680169C943C90708D196
:101FE000C168C943C90704D1891E0161204600F0B8
:101FF00032F820680169C943090609D4C168C94398
:10200000090605D46FF0800101612046FFF748FE04
:1020100020680169C943490609D4C168C943490612
:1020200005D46FF040010161204600F015F82068EA
:102030000169C94389060BD4C168C943890607D41D
:102040006FF0200101612046BDE87040FFF729BE16
:1020500070BD704770477047704770B5040004D07A
:1020600094F83D00002510B106E0012070BD84F811
:102070003C50204600F022F8242084F83D002068DF
:10208000C16821F40051C160204600F0B5F9206814
:10209000016921F4904101612068416921F02A0120
:1020A00041612068C16841F40051C160256420206D
:1020B00084F83D0084F83E00002070BD70B586B005
:1020C00000250646009501950295039500681E4976
:1020D000884237D11D49886940F480408861886909
:1020E00000F480400490886940F0040088618869A9
:1020F000174C00F004000490481500900220019055
:102100000320039069462046FFF79EF92015CDE98C
:102110000005694620460295FFF796F90E4C0D48DA
:1021200020601020C4E901058020C4E90305656131
:10213000A5612046E561FFF747F908B1FFF797F879
:102140007463666206B070BD003801400010024042
:102150000008014044000240CC0000202DE9F84373
:10216000044690F83D001F4616460D4620284CD1E7
:10217000C5B1BEB194F83C00012846D0012084F8D6
:102180003C004FF00008C4F84080212084F83D0056
:10219000FFF758FAA6848146E684A068B0F5805F10
:1021A00003D004E00120BDE8F883206928B12E4661
:1021B0005FF0000584F83C800EE00026FAE78021FD
:1021C000204600F075F9A0B9AEB116F8010B2168F0
:1021D0004860E08C401EE084E08C4B464FF00002EB
:1021E00000970028EBD14FF04001204600F060F945
:1021F00030B10320D7E735F8020BC0F30800E6E75B
:10220000202084F83D000020CDE70220CBE7FEE748
:1022100070B586B000241848009401940294039489
:10222000816941F010018161816901F0100104911F
:10223000816941F020018161816901F020010491EF
:10224000816941F00401816180690C4E00F0040055
:102250004FF400550490002229463046FFF7ECF970
:1022600001200095CDE90104022003906946304623
:10227000FFF7EAF806B070BD001002400010014000
:1022800010B58CB024216846FEF74DF8002416489E
:1022900009944FF080410A94C0E900144FF6FF7191
:1022A000C0E90241046184610320009001AA022078
:1022B000012182E81300CDE90440CDE90614694606
:1022C00009480894FFF722FD08B172B6FEE70994A9
:1022D00009A905480A94FFF7E5FC002801D072B669
:1022E000FEE70CB010BD000020000020FEE7FEE776
:1022F0007047704702480168491C0160FFF7A8B9A0
:102300000C00002030B58FB028216846FEF70BF88E
:1023100014210AA8FEF707F801210804CDE90010EE
:102320000024029402250491CDE907504FF4E010F7
:1023300009906846FFF710FB08B172B6FEE70F2060
:10234000CDE90A054FF48060CDE90C4002210AA8CE
:102350000E94FFF715FA002801D072B6FEE70FB011
:1023600030BD70470148FFF7C1BD000020000020CC
:10237000F0B50268164B174C174D4FF08047984246
:1023800005D0B84203D0A04201D0A84203D122F028
:1023900070064A683243984205D0B84203D0A04242
:1023A00001D0A84203D122F44074CA6822434C6988
:1023B00022F08002224302608A68C2620A68826256
:1023C000984201D10969016301214161F0BD00001A
:1023D000002C0140000400400008004010B501F04E
:1023E0001F030121046A99408C430462016A9A40E8
:1023F0001143016210BD000070B504460068016918
:10240000E26821F44051114301612169A068084349
:10241000616908432168CA6841F20C639A43024328
:10242000CA6020684169A26921F440711143416189
:102430001E492068884202D1FFF748FA01E0FFF701
:1024400035FA00EBC00101EB0012606864218000E6
:10245000B2FBF0F3B3FBF1F36FF018067343B2FB7A
:10246000F0F5B2FBF0F605EB8305322303EB05151F
:10247000B5FBF1F5B6FBF1F605F0F00505EB061539
:10248000B2FBF0F6B2FBF0F0B0FBF1F06FF0180227
:10249000504306EB800003EB0010B0FBF1F0216825
:1024A00000F00F002844886070BD00000038014033
:1024B0002DE9F041984617460E460446069D1DE05C
:1024C000681C1BD02DB1FFF7BDF8A0EB0800A84297
:1024D00014D92068C16821F4D071C16020684169B5
:1024E00021F001014161202084F83D0084F83E0084
:1024F000002084F83C000320BDE8F08120680068DB
:1025000036EA000004D00020B842D9D00020F3E71A
:102510000120F9E7FEE7490050EAC12018BF042076
:102520004A0D18BF40F0010040F2FF72B2EB515F5C
:1025300008BF40F00200012808BF052070470907C6
:10254000090E002804DB00F1E02080F80014704739
:1025500000F00F0000F1E02080F8141D70473038C3
:102560000A2801D201207047002070472DE9FC4164
:10257000FFF776F8FFF7C6FEFFF74AFE2B484169E2
:1025800041F0010141614069002200F0010000902A
:1025900011460E20FFF7C2F80E20FFF7B1F8FFF743
:1025A0006FFE24482249002401604FF4E131C0E964
:1025B00001140C21C460C0E904418461C461FFF7C7
:1025C0004CFD08B172B6FEE71A483C214838FFF7C7
:1025D0001FFC194D194F4FF4005628780028FCD0E5
:1025E000A86800F04FF8CDE90001124814A220219C
:1025F0004430FDF7F5FD002803DA4FF0FF30BDE869
:10260000FC81202801D30120F9E70A490A2320226E
:1026100044310848FFF7A2FD31463846FFF704F879
:102620002C700A20FEF7FEFED7E7000000100240E3
:102630000038014068000020000000200010014028
:102640000C20252E3466200A200D000010B500292C
:102650000AD00878002807D005487844FEF7F0F93A
:10266000002801D0002010BD0248784410BD0000B1
:102670000E020000060200000808A0F500114FEA53
:102680003101704743004FEAD30C4FEA3C0C434002
:102690001FBF40070CF1605113F0FE4F70471CF054
:1026A000006F03D100200CF0004170470CF0004394
:1026B00043EA507010B540EACC0000F027F800BFA4
:1026C000000000924FEA0001FFF7D6BF4FF0004133
:1026D0004FF00000A1F500217047000010F000410C
:1026E00048BF4042B0FA80F310FA03F2C3F19D03F1
:1026F0000BD051EAC35101EB1220530638BF70478B
:1027000000F1010008BF20F0010070470EF1020E39
:102710002EF0030E5EF8044B244204D44FEA41022B
:10272000B2F17F4F11D84FEA4003B3F17F4F0CD87D
:102730000ED14FEAD07CB2F17F4F0CEB4C0C0CF178
:10274000020C08BF4CEBD17C04E04FF0080C01E018
:102750004FEAD17C0CEB4C0324FA03F404F0070499
:10276000B4F1040C06D20EEB840CBDE810404CF022
:10277000010C6047DFE80CF0070802024FF0004050
:10278000A0F5800010BD0846420018BFD2F180724B
:1027900088BF00F0004010BDFDF7C8BE000000007B
:1027A0000000000001020304060708090000000001
:1027B0000102030402400000000000A0000000002D
:1027C00005400000000000C8000000000C400000B0
:1027D0000000409C00000000194000000020BCBE2A
:1027E0000000000034400000BFC91B8E0000000440
:1027F000B5400000504BCFD06607E2CF010000008B
:102800006C4100003E8251AADFEEA73401000000B7
:10281000D9420000DCB5A0E23A301F97FFFFFFFF6E
:10282000B4450000FD25A0C8E9A3C14FFFFFFFFF8D
:10283000FF3F00000000008000000000FF3F00009C
:102840000000008000000000842800080000002034
:102850002000000028010008A42800082000002013
:1028600050070000440100081C0000004300000065
:10287000F8FFFFFF0C0000000E0000000F0000003A
:102880002E00000001000000000000000000000019
:102890000000000001000000100000000000000027
:0428A0000024F4001C
:04000005080000ED02
:00000001FF
